{
  "contractName": "ClaimHolderLibrary",
  "abi": [
    {
      "anonymous": false,
      "inputs": [
        {
          "indexed": true,
          "name": "claimId",
          "type": "bytes32"
        },
        {
          "indexed": true,
          "name": "topic",
          "type": "uint256"
        },
        {
          "indexed": false,
          "name": "scheme",
          "type": "uint256"
        },
        {
          "indexed": true,
          "name": "issuer",
          "type": "address"
        },
        {
          "indexed": false,
          "name": "signature",
          "type": "bytes"
        },
        {
          "indexed": false,
          "name": "data",
          "type": "bytes"
        },
        {
          "indexed": false,
          "name": "uri",
          "type": "string"
        }
      ],
      "name": "ClaimAdded",
      "type": "event",
      "signature": "0x46149b18aa084502c3f12bc75e19eda8bda8d102b82cce8474677a6d0d5f43c5"
    },
    {
      "anonymous": false,
      "inputs": [
        {
          "indexed": true,
          "name": "claimId",
          "type": "bytes32"
        },
        {
          "indexed": true,
          "name": "topic",
          "type": "uint256"
        },
        {
          "indexed": false,
          "name": "scheme",
          "type": "uint256"
        },
        {
          "indexed": true,
          "name": "issuer",
          "type": "address"
        },
        {
          "indexed": false,
          "name": "signature",
          "type": "bytes"
        },
        {
          "indexed": false,
          "name": "data",
          "type": "bytes"
        },
        {
          "indexed": false,
          "name": "uri",
          "type": "string"
        }
      ],
      "name": "ClaimRemoved",
      "type": "event",
      "signature": "0x3cf57863a89432c61c4a27073c6ee39e8a764bff5a05aebfbcdcdc80b2e6130a"
    },
    {
      "constant": false,
      "inputs": [
        {
          "name": "_keyHolderData",
          "type": "KeyHolderLibrary.KeyHolderData storage"
        },
        {
          "name": "_claims",
          "type": "ClaimHolderLibrary.Claims storage"
        },
        {
          "name": "_topic",
          "type": "uint256"
        },
        {
          "name": "_scheme",
          "type": "uint256"
        },
        {
          "name": "_issuer",
          "type": "address"
        },
        {
          "name": "_signature",
          "type": "bytes"
        },
        {
          "name": "_data",
          "type": "bytes"
        },
        {
          "name": "_uri",
          "type": "string"
        }
      ],
      "name": "addClaim",
      "outputs": [
        {
          "name": "claimRequestId",
          "type": "bytes32"
        }
      ],
      "payable": false,
      "stateMutability": "nonpayable",
      "type": "function",
      "signature": "0xbd2d0c28"
    },
    {
      "constant": false,
      "inputs": [
        {
          "name": "_keyHolderData",
          "type": "KeyHolderLibrary.KeyHolderData storage"
        },
        {
          "name": "_claims",
          "type": "ClaimHolderLibrary.Claims storage"
        },
        {
          "name": "_topic",
          "type": "uint256[]"
        },
        {
          "name": "_issuer",
          "type": "address[]"
        },
        {
          "name": "_signature",
          "type": "bytes"
        },
        {
          "name": "_data",
          "type": "bytes"
        },
        {
          "name": "_offsets",
          "type": "uint256[]"
        }
      ],
      "name": "addClaims",
      "outputs": [],
      "payable": false,
      "stateMutability": "nonpayable",
      "type": "function",
      "signature": "0x428e59ee"
    },
    {
      "constant": false,
      "inputs": [
        {
          "name": "_keyHolderData",
          "type": "KeyHolderLibrary.KeyHolderData storage"
        },
        {
          "name": "_claims",
          "type": "ClaimHolderLibrary.Claims storage"
        },
        {
          "name": "_claimId",
          "type": "bytes32"
        }
      ],
      "name": "removeClaim",
      "outputs": [
        {
          "name": "success",
          "type": "bool"
        }
      ],
      "payable": false,
      "stateMutability": "nonpayable",
      "type": "function",
      "signature": "0x5c02fae1"
    },
    {
      "constant": true,
      "inputs": [
        {
          "name": "_claims",
          "type": "ClaimHolderLibrary.Claims storage"
        },
        {
          "name": "_claimId",
          "type": "bytes32"
        }
      ],
      "name": "getClaim",
      "outputs": [
        {
          "name": "topic",
          "type": "uint256"
        },
        {
          "name": "scheme",
          "type": "uint256"
        },
        {
          "name": "issuer",
          "type": "address"
        },
        {
          "name": "signature",
          "type": "bytes"
        },
        {
          "name": "data",
          "type": "bytes"
        },
        {
          "name": "uri",
          "type": "string"
        }
      ],
      "payable": false,
      "stateMutability": "view",
      "type": "function",
      "signature": "0x8522d0eb"
    }
  ],
  "bytecode": "0x611890610030600b82828239805160001a6073146000811461002057610022565bfe5b5030600052607381538281f3007300000000000000000000000000000000000000003014608060405260043610610079576000357c0100000000000000000000000000000000000000000000000000000000900463ffffffff168063428e59ee1461007e5780635c02fae11461020a5780638522d0eb14610267578063bd2d0c2814610427575b600080fd5b81801561008a57600080fd5b5061020860048036038101908080359060200190929190803590602001909291908035906020019082018035906020019080806020026020016040519081016040528093929190818152602001838360200280828437820191505050505050919291929080359060200190820180359060200190808060200260200160405190810160405280939291908181526020018383602002808284378201915050505050509192919290803590602001908201803590602001908080601f0160208091040260200160405190810160405280939291908181526020018383808284378201915050505050509192919290803590602001908201803590602001908080601f016020809104026020016040519081016040528093929190818152602001838380828437820191505050505050919291929080359060200190820180359060200190808060200260200160405190810160405280939291908181526020018383602002808284378201915050505050509192919290505050610580565b005b81801561021657600080fd5b5061024d60048036038101908080359060200190929190803590602001909291908035600019169060200190929190505050610660565b604051808215151515815260200191505060405180910390f35b610293600480360381019080803590602001909291908035600019169060200190929190505050610c0e565b604051808781526020018681526020018573ffffffffffffffffffffffffffffffffffffffff1673ffffffffffffffffffffffffffffffffffffffff168152602001806020018060200180602001848103845287818151815260200191508051906020019080838360005b838110156103195780820151818401526020810190506102fe565b50505050905090810190601f1680156103465780820380516001836020036101000a031916815260200191505b50848103835286818151815260200191508051906020019080838360005b8381101561037f578082015181840152602081019050610364565b50505050905090810190601f1680156103ac5780820380516001836020036101000a031916815260200191505b50848103825285818151815260200191508051906020019080838360005b838110156103e55780820151818401526020810190506103ca565b50505050905090810190601f1680156104125780820380516001836020036101000a031916815260200191505b50995050505050505050505060405180910390f35b81801561043357600080fd5b5061056260048036038101908080359060200190929190803590602001909291908035906020019092919080359060200190929190803573ffffffffffffffffffffffffffffffffffffffff169060200190929190803590602001908201803590602001908080601f0160208091040260200160405190810160405280939291908181526020018383808284378201915050505050509192919290803590602001908201803590602001908080601f0160208091040260200160405190810160405280939291908181526020018383808284378201915050505050509192919290803590602001908201803590602001908080601f0160208091040260200160405190810160405280939291908181526020018383808284378201915050505050509192919290505050610ee5565b60405180826000191660001916815260200191505060405180910390f35b60008060009150600090505b86518161ffff161015610655576106278989898461ffff168151811015156105b057fe5b9060200190602002015160018a8661ffff168151811015156105ce57fe5b906020019060200201516105eb8b6041890261ffff1660416115a8565b6106118b8a8c8b61ffff1681518110151561060257fe5b906020019060200201516115a8565b6020604051908101604052806000815250610ee5565b50828161ffff1681518110151561063a57fe5b9060200190602002015182019150808060010191505061058c565b505050505050505050565b60003073ffffffffffffffffffffffffffffffffffffffff163373ffffffffffffffffffffffffffffffffffffffff161415156108ad5773__KeyHolderLibrary______________________63d8188a408533604051602001808273ffffffffffffffffffffffffffffffffffffffff1673ffffffffffffffffffffffffffffffffffffffff166c010000000000000000000000000281526014019150506040516020818303038152906040526040518082805190602001908083835b602083101515610742578051825260208201915060208101905060208303925061071d565b6001836020036101000a038019825116818451168082178552505050505050905001915050604051809103902060016040518463ffffffff167c0100000000000000000000000000000000000000000000000000000000028152600401808481526020018360001916600019168152602001828152602001935050505060206040518083038186803b1580156107d757600080fd5b505af41580156107eb573d6000803e3d6000fd5b505050506040513d602081101561080157600080fd5b810190808051906020019092919050505015156108ac576040517f08c379a00000000000000000000000000000000000000000000000000000000081526004018080602001828103825260238152602001807f53656e64657220646f6573206e6f742068617665206d616e6167656d656e742081526020017f6b6579000000000000000000000000000000000000000000000000000000000081525060400191505060405180910390fd5b5b826000016000836000191660001916815260200190815260200160002060020160009054906101000a900473ffffffffffffffffffffffffffffffffffffffff1673ffffffffffffffffffffffffffffffffffffffff1683600001600084600019166000191681526020019081526020016000206000015483600019167f3cf57863a89432c61c4a27073c6ee39e8a764bff5a05aebfbcdcdc80b2e6130a866000016000876000191660001916815260200190815260200160002060010154876000016000886000191660001916815260200190815260200160002060030188600001600089600019166000191681526020019081526020016000206004018960000160008a6000191660001916815260200190815260200160002060050160405180858152602001806020018060200180602001848103845287818154600181600116156101000203166002900481526020019150805460018160011615610100020316600290048015610a635780601f10610a3857610100808354040283529160200191610a63565b820191906000526020600020905b815481529060010190602001808311610a4657829003601f168201915b5050848103835286818154600181600116156101000203166002900481526020019150805460018160011615610100020316600290048015610ae65780601f10610abb57610100808354040283529160200191610ae6565b820191906000526020600020905b815481529060010190602001808311610ac957829003601f168201915b5050848103825285818154600181600116156101000203166002900481526020019150805460018160011615610100020316600290048015610b695780601f10610b3e57610100808354040283529160200191610b69565b820191906000526020600020905b815481529060010190602001808311610b4c57829003601f168201915b505097505050505050505060405180910390a4826000016000836000191660001916815260200190815260200160002060008082016000905560018201600090556002820160006101000a81549073ffffffffffffffffffffffffffffffffffffffff0219169055600382016000610be191906116af565b600482016000610bf191906116af565b600582016000610c0191906116f7565b5050600190509392505050565b600080600060608060608760000160008860001916600019168152602001908152602001600020600001548860000160008960001916600019168152602001908152602001600020600101548960000160008a6000191660001916815260200190815260200160002060020160009054906101000a900473ffffffffffffffffffffffffffffffffffffffff168a60000160008b600019166000191681526020019081526020016000206003018b60000160008c600019166000191681526020019081526020016000206004018c60000160008d60001916600019168152602001908152602001600020600501828054600181600116156101000203166002900480601f016020809104026020016040519081016040528092919081815260200182805460018160011615610100020316600290048015610d905780601f10610d6557610100808354040283529160200191610d90565b820191906000526020600020905b815481529060010190602001808311610d7357829003601f168201915b50505050509250818054600181600116156101000203166002900480601f016020809104026020016040519081016040528092919081815260200182805460018160011615610100020316600290048015610e2c5780601f10610e0157610100808354040283529160200191610e2c565b820191906000526020600020905b815481529060010190602001808311610e0f57829003601f168201915b50505050509150808054600181600116156101000203166002900480601f016020809104026020016040519081016040528092919081815260200182805460018160011615610100020316600290048015610ec85780601f10610e9d57610100808354040283529160200191610ec8565b820191906000526020600020905b815481529060010190602001808311610eab57829003601f168201915b505050505090509550955095509550955095509295509295509295565b6000803073ffffffffffffffffffffffffffffffffffffffff163373ffffffffffffffffffffffffffffffffffffffff161415156111335773__KeyHolderLibrary______________________63d8188a408b33604051602001808273ffffffffffffffffffffffffffffffffffffffff1673ffffffffffffffffffffffffffffffffffffffff166c010000000000000000000000000281526014019150506040516020818303038152906040526040518082805190602001908083835b602083101515610fc85780518252602082019150602081019050602083039250610fa3565b6001836020036101000a038019825116818451168082178552505050505050905001915050604051809103902060036040518463ffffffff167c0100000000000000000000000000000000000000000000000000000000028152600401808481526020018360001916600019168152602001828152602001935050505060206040518083038186803b15801561105d57600080fd5b505af4158015611071573d6000803e3d6000fd5b505050506040513d602081101561108757600080fd5b81019080805190602001909291905050501515611132576040517f08c379a00000000000000000000000000000000000000000000000000000000081526004018080602001828103825260258152602001807f53656e64657220646f6573206e6f74206861766520636c61696d207369676e6581526020017f72206b657900000000000000000000000000000000000000000000000000000081525060400191505060405180910390fd5b5b8588604051602001808373ffffffffffffffffffffffffffffffffffffffff1673ffffffffffffffffffffffffffffffffffffffff166c01000000000000000000000000028152601401828152602001925050506040516020818303038152906040526040518082805190602001908083835b6020831015156111cb57805182526020820191506020810190506020830392506111a6565b6001836020036101000a038019825116818451168082178552505050505050905001915050604051809103902090508573ffffffffffffffffffffffffffffffffffffffff16896000016000836000191660001916815260200190815260200160002060020160009054906101000a900473ffffffffffffffffffffffffffffffffffffffff1673ffffffffffffffffffffffffffffffffffffffff161415156112b5578860010160008981526020019081526020016000208190806001815401808255809150509060018203906000526020600020016000909192909190915090600019169055505b878960000160008360001916600019168152602001908152602001600020600001819055508689600001600083600019166000191681526020019081526020016000206001018190555085896000016000836000191660001916815260200190815260200160002060020160006101000a81548173ffffffffffffffffffffffffffffffffffffffff021916908373ffffffffffffffffffffffffffffffffffffffff160217905550848960000160008360001916600019168152602001908152602001600020600301908051906020019061139292919061173f565b5083896000016000836000191660001916815260200190815260200160002060040190805190602001906113c792919061173f565b5082896000016000836000191660001916815260200190815260200160002060050190805190602001906113fc9291906117bf565b508573ffffffffffffffffffffffffffffffffffffffff168882600019167f46149b18aa084502c3f12bc75e19eda8bda8d102b82cce8474677a6d0d5f43c58a89898960405180858152602001806020018060200180602001848103845287818151815260200191508051906020019080838360005b8381101561148d578082015181840152602081019050611472565b50505050905090810190601f1680156114ba5780820380516001836020036101000a031916815260200191505b50848103835286818151815260200191508051906020019080838360005b838110156114f35780820151818401526020810190506114d8565b50505050905090810190601f1680156115205780820380516001836020036101000a031916815260200191505b50848103825285818151815260200191508051906020019080838360005b8381101561155957808201518184015260208101905061153e565b50505050905090810190601f1680156115865780820380516001836020036101000a031916815260200191505b5097505050505050505060405180910390a48091505098975050505050505050565b606080600080846040519080825280601f01601f1916602001820160405280156115e15781602001602082028038833980820191505090505b509250600091508590505b8486018110156116a257868181518110151561160457fe5b9060200101517f010000000000000000000000000000000000000000000000000000000000000090047f010000000000000000000000000000000000000000000000000000000000000002838381518110151561165d57fe5b9060200101907effffffffffffffffffffffffffffffffffffffffffffffffffffffffffffff1916908160001a905350818060010192505080806001019150506115ec565b8293505050509392505050565b50805460018160011615610100020316600290046000825580601f106116d557506116f4565b601f0160209004906000526020600020908101906116f3919061183f565b5b50565b50805460018160011615610100020316600290046000825580601f1061171d575061173c565b601f01602090049060005260206000209081019061173b919061183f565b5b50565b828054600181600116156101000203166002900490600052602060002090601f016020900481019282601f1061178057805160ff19168380011785556117ae565b828001600101855582156117ae579182015b828111156117ad578251825591602001919060010190611792565b5b5090506117bb919061183f565b5090565b828054600181600116156101000203166002900490600052602060002090601f016020900481019282601f1061180057805160ff191683800117855561182e565b8280016001018555821561182e579182015b8281111561182d578251825591602001919060010190611812565b5b50905061183b919061183f565b5090565b61186191905b8082111561185d576000816000905550600101611845565b5090565b905600a165627a7a72305820e1390c2acf08edb082e37cea1e37d206cfc4fc734c2c204adb76770fe5bcb2090029",
  "source": "pragma solidity ^0.4.24;\n\nimport \"./KeyHolderLibrary.sol\";\n\n\nlibrary ClaimHolderLibrary {\n    event ClaimAdded(bytes32 indexed claimId, uint256 indexed topic, uint256 scheme, address indexed issuer, bytes signature, bytes data, string uri);\n    event ClaimRemoved(bytes32 indexed claimId, uint256 indexed topic, uint256 scheme, address indexed issuer, bytes signature, bytes data, string uri);\n\n    struct Claim {\n        uint256 topic;\n        uint256 scheme;\n        address issuer; // msg.sender\n        bytes signature; // this.address + topic + data\n        bytes data;\n        string uri;\n    }\n\n    struct Claims {\n        mapping (bytes32 => Claim) byId;\n        mapping (uint256 => bytes32[]) byTopic;\n    }\n\n    function addClaim(\n        KeyHolderLibrary.KeyHolderData storage _keyHolderData,\n        Claims storage _claims,\n        uint256 _topic,\n        uint256 _scheme,\n        address _issuer,\n        bytes _signature,\n        bytes _data,\n        string _uri\n    )\n        public\n        returns (bytes32 claimRequestId)\n    {\n        if (msg.sender != address(this)) {\n            require(KeyHolderLibrary.keyHasPurpose(_keyHolderData, keccak256(abi.encodePacked(msg.sender)), 3), \"Sender does not have claim signer key\");\n        }\n\n        bytes32 claimId = keccak256(abi.encodePacked(_issuer, _topic));\n\n        if (_claims.byId[claimId].issuer != _issuer) {\n            _claims.byTopic[_topic].push(claimId);\n        }\n\n        _claims.byId[claimId].topic = _topic;\n        _claims.byId[claimId].scheme = _scheme;\n        _claims.byId[claimId].issuer = _issuer;\n        _claims.byId[claimId].signature = _signature;\n        _claims.byId[claimId].data = _data;\n        _claims.byId[claimId].uri = _uri;\n\n        emit ClaimAdded(\n            claimId,\n            _topic,\n            _scheme,\n            _issuer,\n            _signature,\n            _data,\n            _uri\n        );\n\n        return claimId;\n    }\n\n    function addClaims(\n        KeyHolderLibrary.KeyHolderData storage _keyHolderData,\n        Claims storage _claims,\n        uint256[] _topic,\n        address[] _issuer,\n        bytes _signature,\n        bytes _data,\n        uint256[] _offsets\n    )\n        public\n    {\n        uint offset = 0;\n        for (uint16 i = 0; i < _topic.length; i++) {\n            addClaim(\n                _keyHolderData,\n                _claims,\n                _topic[i],\n                1,\n                _issuer[i],\n                getBytes(_signature, (i * 65), 65),\n                getBytes(_data, offset, _offsets[i]),\n                \"\"\n            );\n            offset += _offsets[i];\n        }\n    }\n\n    function removeClaim(\n        KeyHolderLibrary.KeyHolderData storage _keyHolderData,\n        Claims storage _claims,\n        bytes32 _claimId\n    )\n        public\n        returns (bool success)\n    {\n        if (msg.sender != address(this)) {\n            require(KeyHolderLibrary.keyHasPurpose(_keyHolderData, keccak256(abi.encodePacked(msg.sender)), 1), \"Sender does not have management key\");\n        }\n\n        emit ClaimRemoved(\n            _claimId,\n            _claims.byId[_claimId].topic,\n            _claims.byId[_claimId].scheme,\n            _claims.byId[_claimId].issuer,\n            _claims.byId[_claimId].signature,\n            _claims.byId[_claimId].data,\n            _claims.byId[_claimId].uri\n        );\n\n        delete _claims.byId[_claimId];\n        return true;\n    }\n\n    function getClaim(Claims storage _claims, bytes32 _claimId)\n        public\n        view\n        returns(\n          uint256 topic,\n          uint256 scheme,\n          address issuer,\n          bytes signature,\n          bytes data,\n          string uri\n        )\n    {\n        return (\n            _claims.byId[_claimId].topic,\n            _claims.byId[_claimId].scheme,\n            _claims.byId[_claimId].issuer,\n            _claims.byId[_claimId].signature,\n            _claims.byId[_claimId].data,\n            _claims.byId[_claimId].uri\n        );\n    }\n\n    function getBytes(bytes _str, uint256 _offset, uint256 _length)\n        internal\n        pure\n        returns (bytes)\n    {\n        bytes memory sig = new bytes(_length);\n        uint256 j = 0;\n        for (uint256 k = _offset; k < _offset + _length; k++) {\n            sig[j] = _str[k];\n            j++;\n        }\n        return sig;\n    }\n}",
  "sourcePath": "/Users/chanpoyu/Desktop/Identity/contracts/ClaimHolderLibrary.sol",
  "compiler": {
    "name": "solc",
    "version": "0.4.25+commit.59dbf8f1.Linux.g++"
  },
  "schemaVersion": "3.0.1",
  "updatedAt": "2019-01-10T01:38:37.982Z",
  "devdoc": {
    "methods": {}
  },
  "userdoc": {
    "methods": {}
  }
}