{
  "contractName": "ClaimHolder",
  "abi": [
    {
      "constant": true,
      "inputs": [
        {
          "name": "_key",
          "type": "bytes32"
        }
      ],
      "name": "getKey",
      "outputs": [
        {
          "name": "purposes",
          "type": "uint256[]"
        },
        {
          "name": "keyType",
          "type": "uint256"
        },
        {
          "name": "key",
          "type": "bytes32"
        }
      ],
      "payable": false,
      "stateMutability": "view",
      "type": "function",
      "signature": "0x12aaac70"
    },
    {
      "constant": false,
      "inputs": [
        {
          "name": "_key",
          "type": "bytes32"
        },
        {
          "name": "_purpose",
          "type": "uint256"
        },
        {
          "name": "_type",
          "type": "uint256"
        }
      ],
      "name": "addKey",
      "outputs": [
        {
          "name": "success",
          "type": "bool"
        }
      ],
      "payable": false,
      "stateMutability": "nonpayable",
      "type": "function",
      "signature": "0x1d381240"
    },
    {
      "constant": false,
      "inputs": [
        {
          "name": "_key",
          "type": "bytes32"
        },
        {
          "name": "_purpose",
          "type": "uint256"
        }
      ],
      "name": "removeKey",
      "outputs": [
        {
          "name": "success",
          "type": "bool"
        }
      ],
      "payable": false,
      "stateMutability": "nonpayable",
      "type": "function",
      "signature": "0x53d413c5"
    },
    {
      "constant": false,
      "inputs": [
        {
          "name": "_id",
          "type": "uint256"
        },
        {
          "name": "_approve",
          "type": "bool"
        }
      ],
      "name": "approve",
      "outputs": [
        {
          "name": "success",
          "type": "bool"
        }
      ],
      "payable": false,
      "stateMutability": "nonpayable",
      "type": "function",
      "signature": "0x747442d3"
    },
    {
      "constant": true,
      "inputs": [
        {
          "name": "_purpose",
          "type": "uint256"
        }
      ],
      "name": "getKeysByPurpose",
      "outputs": [
        {
          "name": "_keys",
          "type": "bytes32[]"
        }
      ],
      "payable": false,
      "stateMutability": "view",
      "type": "function",
      "signature": "0x9010f726"
    },
    {
      "constant": false,
      "inputs": [
        {
          "name": "_to",
          "type": "address"
        },
        {
          "name": "_value",
          "type": "uint256"
        },
        {
          "name": "_data",
          "type": "bytes"
        }
      ],
      "name": "execute",
      "outputs": [
        {
          "name": "executionId",
          "type": "uint256"
        }
      ],
      "payable": false,
      "stateMutability": "nonpayable",
      "type": "function",
      "signature": "0xb61d27f6"
    },
    {
      "constant": true,
      "inputs": [
        {
          "name": "_key",
          "type": "bytes32"
        },
        {
          "name": "_purpose",
          "type": "uint256"
        }
      ],
      "name": "keyHasPurpose",
      "outputs": [
        {
          "name": "exists",
          "type": "bool"
        }
      ],
      "payable": false,
      "stateMutability": "view",
      "type": "function",
      "signature": "0xd202158d"
    },
    {
      "constant": true,
      "inputs": [
        {
          "name": "_key",
          "type": "bytes32"
        }
      ],
      "name": "getKeyPurposes",
      "outputs": [
        {
          "name": "purposes",
          "type": "uint256[]"
        }
      ],
      "payable": false,
      "stateMutability": "view",
      "type": "function",
      "signature": "0xfb307b34"
    },
    {
      "anonymous": false,
      "inputs": [
        {
          "indexed": true,
          "name": "claimRequestId",
          "type": "uint256"
        },
        {
          "indexed": true,
          "name": "topic",
          "type": "uint256"
        },
        {
          "indexed": false,
          "name": "scheme",
          "type": "uint256"
        },
        {
          "indexed": true,
          "name": "issuer",
          "type": "address"
        },
        {
          "indexed": false,
          "name": "signature",
          "type": "bytes"
        },
        {
          "indexed": false,
          "name": "data",
          "type": "bytes"
        },
        {
          "indexed": false,
          "name": "uri",
          "type": "string"
        }
      ],
      "name": "ClaimRequested",
      "type": "event",
      "signature": "0xe6b6db97dedfb44cbced367387e40b3f92dbee1b1be87f9367f7b673532b0d69"
    },
    {
      "anonymous": false,
      "inputs": [
        {
          "indexed": true,
          "name": "claimId",
          "type": "bytes32"
        },
        {
          "indexed": true,
          "name": "topic",
          "type": "uint256"
        },
        {
          "indexed": false,
          "name": "scheme",
          "type": "uint256"
        },
        {
          "indexed": true,
          "name": "issuer",
          "type": "address"
        },
        {
          "indexed": false,
          "name": "signature",
          "type": "bytes"
        },
        {
          "indexed": false,
          "name": "data",
          "type": "bytes"
        },
        {
          "indexed": false,
          "name": "uri",
          "type": "string"
        }
      ],
      "name": "ClaimAdded",
      "type": "event",
      "signature": "0x46149b18aa084502c3f12bc75e19eda8bda8d102b82cce8474677a6d0d5f43c5"
    },
    {
      "anonymous": false,
      "inputs": [
        {
          "indexed": true,
          "name": "claimId",
          "type": "bytes32"
        },
        {
          "indexed": true,
          "name": "topic",
          "type": "uint256"
        },
        {
          "indexed": false,
          "name": "scheme",
          "type": "uint256"
        },
        {
          "indexed": true,
          "name": "issuer",
          "type": "address"
        },
        {
          "indexed": false,
          "name": "signature",
          "type": "bytes"
        },
        {
          "indexed": false,
          "name": "data",
          "type": "bytes"
        },
        {
          "indexed": false,
          "name": "uri",
          "type": "string"
        }
      ],
      "name": "ClaimRemoved",
      "type": "event",
      "signature": "0x3cf57863a89432c61c4a27073c6ee39e8a764bff5a05aebfbcdcdc80b2e6130a"
    },
    {
      "anonymous": false,
      "inputs": [
        {
          "indexed": true,
          "name": "claimId",
          "type": "bytes32"
        },
        {
          "indexed": true,
          "name": "topic",
          "type": "uint256"
        },
        {
          "indexed": false,
          "name": "scheme",
          "type": "uint256"
        },
        {
          "indexed": true,
          "name": "issuer",
          "type": "address"
        },
        {
          "indexed": false,
          "name": "signature",
          "type": "bytes"
        },
        {
          "indexed": false,
          "name": "data",
          "type": "bytes"
        },
        {
          "indexed": false,
          "name": "uri",
          "type": "string"
        }
      ],
      "name": "ClaimChanged",
      "type": "event",
      "signature": "0x3bab293fc00db832d7619a9299914251b8747c036867ec056cbd506f60135b13"
    },
    {
      "anonymous": false,
      "inputs": [
        {
          "indexed": true,
          "name": "key",
          "type": "bytes32"
        },
        {
          "indexed": true,
          "name": "purpose",
          "type": "uint256"
        },
        {
          "indexed": true,
          "name": "keyType",
          "type": "uint256"
        }
      ],
      "name": "KeyAdded",
      "type": "event",
      "signature": "0x480000bb1edad8ca1470381cc334b1917fbd51c6531f3a623ea8e0ec7e38a6e9"
    },
    {
      "anonymous": false,
      "inputs": [
        {
          "indexed": true,
          "name": "key",
          "type": "bytes32"
        },
        {
          "indexed": true,
          "name": "purpose",
          "type": "uint256"
        },
        {
          "indexed": true,
          "name": "keyType",
          "type": "uint256"
        }
      ],
      "name": "KeyRemoved",
      "type": "event",
      "signature": "0x585a4aef50f8267a92b32412b331b20f7f8b96f2245b253b9cc50dcc621d3397"
    },
    {
      "anonymous": false,
      "inputs": [
        {
          "indexed": true,
          "name": "executionId",
          "type": "uint256"
        },
        {
          "indexed": true,
          "name": "to",
          "type": "address"
        },
        {
          "indexed": true,
          "name": "value",
          "type": "uint256"
        },
        {
          "indexed": false,
          "name": "data",
          "type": "bytes"
        }
      ],
      "name": "ExecutionRequested",
      "type": "event",
      "signature": "0x8afcfabcb00e47a53a8fc3e9f23ff47ee1926194bb1350dd007c50b412a6cee8"
    },
    {
      "anonymous": false,
      "inputs": [
        {
          "indexed": true,
          "name": "executionId",
          "type": "uint256"
        },
        {
          "indexed": true,
          "name": "to",
          "type": "address"
        },
        {
          "indexed": true,
          "name": "value",
          "type": "uint256"
        },
        {
          "indexed": false,
          "name": "data",
          "type": "bytes"
        }
      ],
      "name": "Executed",
      "type": "event",
      "signature": "0x1f920dbda597d7bf95035464170fa58d0a4b57f13a1c315ace6793b9f63688b8"
    },
    {
      "anonymous": false,
      "inputs": [
        {
          "indexed": true,
          "name": "executionId",
          "type": "uint256"
        },
        {
          "indexed": false,
          "name": "approved",
          "type": "bool"
        }
      ],
      "name": "Approved",
      "type": "event",
      "signature": "0xb3932da477fe5d6c8ff2eafef050c0f3a1af18fc07121001482600f36f3715d8"
    },
    {
      "constant": false,
      "inputs": [
        {
          "name": "_topic",
          "type": "uint256"
        },
        {
          "name": "_scheme",
          "type": "uint256"
        },
        {
          "name": "_issuer",
          "type": "address"
        },
        {
          "name": "_signature",
          "type": "bytes"
        },
        {
          "name": "_data",
          "type": "bytes"
        },
        {
          "name": "_uri",
          "type": "string"
        }
      ],
      "name": "addClaim",
      "outputs": [
        {
          "name": "claimRequestId",
          "type": "bytes32"
        }
      ],
      "payable": false,
      "stateMutability": "nonpayable",
      "type": "function",
      "signature": "0xb1a34e0d"
    },
    {
      "constant": false,
      "inputs": [
        {
          "name": "_topic",
          "type": "uint256[]"
        },
        {
          "name": "_issuer",
          "type": "address[]"
        },
        {
          "name": "_signature",
          "type": "bytes"
        },
        {
          "name": "_data",
          "type": "bytes"
        },
        {
          "name": "_offsets",
          "type": "uint256[]"
        }
      ],
      "name": "addClaims",
      "outputs": [],
      "payable": false,
      "stateMutability": "nonpayable",
      "type": "function",
      "signature": "0x21c148f0"
    },
    {
      "constant": false,
      "inputs": [
        {
          "name": "_claimId",
          "type": "bytes32"
        }
      ],
      "name": "removeClaim",
      "outputs": [
        {
          "name": "success",
          "type": "bool"
        }
      ],
      "payable": false,
      "stateMutability": "nonpayable",
      "type": "function",
      "signature": "0x4eee424a"
    },
    {
      "constant": true,
      "inputs": [
        {
          "name": "_claimId",
          "type": "bytes32"
        }
      ],
      "name": "getClaim",
      "outputs": [
        {
          "name": "topic",
          "type": "uint256"
        },
        {
          "name": "scheme",
          "type": "uint256"
        },
        {
          "name": "issuer",
          "type": "address"
        },
        {
          "name": "signature",
          "type": "bytes"
        },
        {
          "name": "data",
          "type": "bytes"
        },
        {
          "name": "uri",
          "type": "string"
        }
      ],
      "payable": false,
      "stateMutability": "view",
      "type": "function",
      "signature": "0xc9100bcb"
    },
    {
      "constant": true,
      "inputs": [
        {
          "name": "_topic",
          "type": "uint256"
        }
      ],
      "name": "getClaimIdsByTopic",
      "outputs": [
        {
          "name": "claimIds",
          "type": "bytes32[]"
        }
      ],
      "payable": false,
      "stateMutability": "view",
      "type": "function",
      "signature": "0x80e9e9e1"
    }
  ],
  "bytecode": "0x608060405273__KeyHolderLibrary______________________6330864be560006040518263ffffffff167c01000000000000000000000000000000000000000000000000000000000281526004018082815260200191505060006040518083038186803b15801561007057600080fd5b505af4158015610084573d6000803e3d6000fd5b50505050611973806100976000396000f3006080604052600436106100c5576000357c0100000000000000000000000000000000000000000000000000000000900463ffffffff16806312aaac70146100ca5780631d3812401461016657806321c148f0146101c35780634eee424a1461033b57806353d413c514610384578063747442d3146103d757806380e9e9e1146104285780639010f726146104aa578063b1a34e0d1461052c578063b61d27f614610671578063c9100bcb14610718578063d202158d146108db578063fb307b341461092e575b600080fd5b3480156100d657600080fd5b506100f960048036038101908080356000191690602001909291905050506109b4565b60405180806020018481526020018360001916600019168152602001828103825285818151815260200191508051906020019060200280838360005b83811015610150578082015181840152602081019050610135565b5050505090500194505050505060405180910390f35b34801561017257600080fd5b506101a960048036038101908080356000191690602001909291908035906020019092919080359060200190929190505050610aea565b604051808215151515815260200191505060405180910390f35b3480156101cf57600080fd5b506103396004803603810190808035906020019082018035906020019080806020026020016040519081016040528093929190818152602001838360200280828437820191505050505050919291929080359060200190820180359060200190808060200260200160405190810160405280939291908181526020018383602002808284378201915050505050509192919290803590602001908201803590602001908080601f0160208091040260200160405190810160405280939291908181526020018383808284378201915050505050509192919290803590602001908201803590602001908080601f016020809104026020016040519081016040528093929190818152602001838380828437820191505050505050919291929080359060200190820180359060200190808060200260200160405190810160405280939291908181526020018383602002808284378201915050505050509192919290505050610bbc565b005b34801561034757600080fd5b5061036a6004803603810190808035600019169060200190929190505050610e05565b604051808215151515815260200191505060405180910390f35b34801561039057600080fd5b506103bd600480360381019080803560001916906020019092919080359060200190929190505050610ece565b604051808215151515815260200191505060405180910390f35b3480156103e357600080fd5b5061040e60048036038101908080359060200190929190803515159060200190929190505050610f97565b604051808215151515815260200191505060405180910390f35b34801561043457600080fd5b506104536004803603810190808035906020019092919050505061105c565b6040518080602001828103825283818151815260200191508051906020019060200280838360005b8381101561049657808201518184015260208101905061047b565b505050509050019250505060405180910390f35b3480156104b657600080fd5b506104d5600480360381019080803590602001909291905050506110ce565b6040518080602001828103825283818151815260200191508051906020019060200280838360005b838110156105185780820151818401526020810190506104fd565b505050509050019250505060405180910390f35b34801561053857600080fd5b506106536004803603810190808035906020019092919080359060200190929190803573ffffffffffffffffffffffffffffffffffffffff169060200190929190803590602001908201803590602001908080601f0160208091040260200160405190810160405280939291908181526020018383808284378201915050505050509192919290803590602001908201803590602001908080601f0160208091040260200160405190810160405280939291908181526020018383808284378201915050505050509192919290803590602001908201803590602001908080601f01602080910402602001604051908101604052809392919081815260200183838082843782019150505050505091929192905050506111dc565b60405180826000191660001916815260200191505060405180910390f35b34801561067d57600080fd5b50610702600480360381019080803573ffffffffffffffffffffffffffffffffffffffff16906020019092919080359060200190929190803590602001908201803590602001908080601f0160208091040260200160405190810160405280939291908181526020018383808284378201915050505050509192919290505050611425565b6040518082815260200191505060405180910390f35b34801561072457600080fd5b506107476004803603810190808035600019169060200190929190505050611580565b604051808781526020018681526020018573ffffffffffffffffffffffffffffffffffffffff1673ffffffffffffffffffffffffffffffffffffffff168152602001806020018060200180602001848103845287818151815260200191508051906020019080838360005b838110156107cd5780820151818401526020810190506107b2565b50505050905090810190601f1680156107fa5780820380516001836020036101000a031916815260200191505b50848103835286818151815260200191508051906020019080838360005b83811015610833578082015181840152602081019050610818565b50505050905090810190601f1680156108605780820380516001836020036101000a031916815260200191505b50848103825285818151815260200191508051906020019080838360005b8381101561089957808201518184015260208101905061087e565b50505050905090810190601f1680156108c65780820380516001836020036101000a031916815260200191505b50995050505050505050505060405180910390f35b3480156108e757600080fd5b50610914600480360381019080803560001916906020019092919080359060200190929190505050611768565b604051808215151515815260200191505060405180910390f35b34801561093a57600080fd5b5061095d6004803603810190808035600019169060200190929190505050611831565b6040518080602001828103825283818151815260200191508051906020019060200280838360005b838110156109a0578082015181840152602081019050610985565b505050509050019250505060405180910390f35b606060008073__KeyHolderLibrary______________________63b01a9fb36000866040518363ffffffff167c01000000000000000000000000000000000000000000000000000000000281526004018083815260200182600019166000191681526020019250505060006040518083038186803b158015610a3557600080fd5b505af4158015610a49573d6000803e3d6000fd5b505050506040513d6000823e3d601f19601f820116820180604052506060811015610a7357600080fd5b810190808051640100000000811115610a8b57600080fd5b82810190506020810184811115610aa157600080fd5b8151856020820283011164010000000082111715610abe57600080fd5b505092919060200180519060200190929190805190602001909291905050509250925092509193909250565b600073__KeyHolderLibrary______________________635d601c3a60008686866040518563ffffffff167c010000000000000000000000000000000000000000000000000000000002815260040180858152602001846000191660001916815260200183815260200182815260200194505050505060206040518083038186803b158015610b7857600080fd5b505af4158015610b8c573d6000803e3d6000fd5b505050506040513d6020811015610ba257600080fd5b810190808051906020019092919050505090509392505050565b73__ClaimHolderLibrary____________________63428e59ee6000600488888888886040518863ffffffff167c010000000000000000000000000000000000000000000000000000000002815260040180888152602001878152602001806020018060200180602001806020018060200186810386528b818151815260200191508051906020019060200280838360005b83811015610c69578082015181840152602081019050610c4e565b5050505090500186810385528a818151815260200191508051906020019060200280838360005b83811015610cab578082015181840152602081019050610c90565b50505050905001868103845289818151815260200191508051906020019080838360005b83811015610cea578082015181840152602081019050610ccf565b50505050905090810190601f168015610d175780820380516001836020036101000a031916815260200191505b50868103835288818151815260200191508051906020019080838360005b83811015610d50578082015181840152602081019050610d35565b50505050905090810190601f168015610d7d5780820380516001836020036101000a031916815260200191505b50868103825287818151815260200191508051906020019060200280838360005b83811015610db9578082015181840152602081019050610d9e565b505050509050019c5050505050505050505050505060006040518083038186803b158015610de657600080fd5b505af4158015610dfa573d6000803e3d6000fd5b505050505050505050565b600073__ClaimHolderLibrary____________________635c02fae160006004856040518463ffffffff167c0100000000000000000000000000000000000000000000000000000000028152600401808481526020018381526020018260001916600019168152602001935050505060206040518083038186803b158015610e8c57600080fd5b505af4158015610ea0573d6000803e3d6000fd5b505050506040513d6020811015610eb657600080fd5b81019080805190602001909291905050509050919050565b600073__KeyHolderLibrary______________________633f47616d600085856040518463ffffffff167c0100000000000000000000000000000000000000000000000000000000028152600401808481526020018360001916600019168152602001828152602001935050505060206040518083038186803b158015610f5457600080fd5b505af4158015610f68573d6000803e3d6000fd5b505050506040513d6020811015610f7e57600080fd5b8101908080519060200190929190505050905092915050565b600073__KeyHolderLibrary______________________6367d4865f600085856040518463ffffffff167c01000000000000000000000000000000000000000000000000000000000281526004018084815260200183815260200182151515158152602001935050505060206040518083038186803b15801561101957600080fd5b505af415801561102d573d6000803e3d6000fd5b505050506040513d602081101561104357600080fd5b8101908080519060200190929190505050905092915050565b6060600460010160008381526020019081526020016000208054806020026020016040519081016040528092919081815260200182805480156110c257602002820191906000526020600020905b815460001916815260200190600101908083116110aa575b50505050509050919050565b606073__KeyHolderLibrary______________________63746199f96000846040518363ffffffff167c0100000000000000000000000000000000000000000000000000000000028152600401808381526020018281526020019250505060006040518083038186803b15801561114457600080fd5b505af4158015611158573d6000803e3d6000fd5b505050506040513d6000823e3d601f19601f82011682018060405250602081101561118257600080fd5b81019080805164010000000081111561119a57600080fd5b828101905060208101848111156111b057600080fd5b81518560208202830111640100000000821117156111cd57600080fd5b50509291905050509050919050565b600073__ClaimHolderLibrary____________________63bd2d0c28600060048a8a8a8a8a8a6040518963ffffffff167c0100000000000000000000000000000000000000000000000000000000028152600401808981526020018881526020018781526020018681526020018573ffffffffffffffffffffffffffffffffffffffff1673ffffffffffffffffffffffffffffffffffffffff168152602001806020018060200180602001848103845287818151815260200191508051906020019080838360005b838110156112bf5780820151818401526020810190506112a4565b50505050905090810190601f1680156112ec5780820380516001836020036101000a031916815260200191505b50848103835286818151815260200191508051906020019080838360005b8381101561132557808201518184015260208101905061130a565b50505050905090810190601f1680156113525780820380516001836020036101000a031916815260200191505b50848103825285818151815260200191508051906020019080838360005b8381101561138b578082015181840152602081019050611370565b50505050905090810190601f1680156113b85780820380516001836020036101000a031916815260200191505b509b50505050505050505050505060206040518083038186803b1580156113de57600080fd5b505af41580156113f2573d6000803e3d6000fd5b505050506040513d602081101561140857600080fd5b810190808051906020019092919050505090509695505050505050565b600073__KeyHolderLibrary______________________63e9356c6f60008686866040518563ffffffff167c0100000000000000000000000000000000000000000000000000000000028152600401808581526020018473ffffffffffffffffffffffffffffffffffffffff1673ffffffffffffffffffffffffffffffffffffffff16815260200183815260200180602001828103825283818151815260200191508051906020019080838360005b838110156114ef5780820151818401526020810190506114d4565b50505050905090810190601f16801561151c5780820380516001836020036101000a031916815260200191505b509550505050505060206040518083038186803b15801561153c57600080fd5b505af4158015611550573d6000803e3d6000fd5b505050506040513d602081101561156657600080fd5b810190808051906020019092919050505090509392505050565b6000806000606080606073__ClaimHolderLibrary____________________638522d0eb6004896040518363ffffffff167c01000000000000000000000000000000000000000000000000000000000281526004018083815260200182600019166000191681526020019250505060006040518083038186803b15801561160657600080fd5b505af415801561161a573d6000803e3d6000fd5b505050506040513d6000823e3d601f19601f8201168201806040525060c081101561164457600080fd5b81019080805190602001909291908051906020019092919080519060200190929190805164010000000081111561167a57600080fd5b8281019050602081018481111561169057600080fd5b81518560018202830111640100000000821117156116ad57600080fd5b505092919060200180516401000000008111156116c957600080fd5b828101905060208101848111156116df57600080fd5b81518560018202830111640100000000821117156116fc57600080fd5b5050929190602001805164010000000081111561171857600080fd5b8281019050602081018481111561172e57600080fd5b815185600182028301116401000000008211171561174b57600080fd5b505092919050505095509550955095509550955091939550919395565b600073__KeyHolderLibrary______________________63d8188a40600085856040518463ffffffff167c0100000000000000000000000000000000000000000000000000000000028152600401808481526020018360001916600019168152602001828152602001935050505060206040518083038186803b1580156117ee57600080fd5b505af4158015611802573d6000803e3d6000fd5b505050506040513d602081101561181857600080fd5b8101908080519060200190929190505050905092915050565b606073__KeyHolderLibrary______________________630f982bac6000846040518363ffffffff167c01000000000000000000000000000000000000000000000000000000000281526004018083815260200182600019166000191681526020019250505060006040518083038186803b1580156118af57600080fd5b505af41580156118c3573d6000803e3d6000fd5b505050506040513d6000823e3d601f19601f8201168201806040525060208110156118ed57600080fd5b81019080805164010000000081111561190557600080fd5b8281019050602081018481111561191b57600080fd5b815185602082028301116401000000008211171561193857600080fd5b505092919050505090509190505600a165627a7a72305820ffe95812111fcf1fb6d819734fafeb387a85897c182cdf2420e1429bb02949750029",
  "deployedBytecode": "0x6080604052600436106100c5576000357c0100000000000000000000000000000000000000000000000000000000900463ffffffff16806312aaac70146100ca5780631d3812401461016657806321c148f0146101c35780634eee424a1461033b57806353d413c514610384578063747442d3146103d757806380e9e9e1146104285780639010f726146104aa578063b1a34e0d1461052c578063b61d27f614610671578063c9100bcb14610718578063d202158d146108db578063fb307b341461092e575b600080fd5b3480156100d657600080fd5b506100f960048036038101908080356000191690602001909291905050506109b4565b60405180806020018481526020018360001916600019168152602001828103825285818151815260200191508051906020019060200280838360005b83811015610150578082015181840152602081019050610135565b5050505090500194505050505060405180910390f35b34801561017257600080fd5b506101a960048036038101908080356000191690602001909291908035906020019092919080359060200190929190505050610aea565b604051808215151515815260200191505060405180910390f35b3480156101cf57600080fd5b506103396004803603810190808035906020019082018035906020019080806020026020016040519081016040528093929190818152602001838360200280828437820191505050505050919291929080359060200190820180359060200190808060200260200160405190810160405280939291908181526020018383602002808284378201915050505050509192919290803590602001908201803590602001908080601f0160208091040260200160405190810160405280939291908181526020018383808284378201915050505050509192919290803590602001908201803590602001908080601f016020809104026020016040519081016040528093929190818152602001838380828437820191505050505050919291929080359060200190820180359060200190808060200260200160405190810160405280939291908181526020018383602002808284378201915050505050509192919290505050610bbc565b005b34801561034757600080fd5b5061036a6004803603810190808035600019169060200190929190505050610e05565b604051808215151515815260200191505060405180910390f35b34801561039057600080fd5b506103bd600480360381019080803560001916906020019092919080359060200190929190505050610ece565b604051808215151515815260200191505060405180910390f35b3480156103e357600080fd5b5061040e60048036038101908080359060200190929190803515159060200190929190505050610f97565b604051808215151515815260200191505060405180910390f35b34801561043457600080fd5b506104536004803603810190808035906020019092919050505061105c565b6040518080602001828103825283818151815260200191508051906020019060200280838360005b8381101561049657808201518184015260208101905061047b565b505050509050019250505060405180910390f35b3480156104b657600080fd5b506104d5600480360381019080803590602001909291905050506110ce565b6040518080602001828103825283818151815260200191508051906020019060200280838360005b838110156105185780820151818401526020810190506104fd565b505050509050019250505060405180910390f35b34801561053857600080fd5b506106536004803603810190808035906020019092919080359060200190929190803573ffffffffffffffffffffffffffffffffffffffff169060200190929190803590602001908201803590602001908080601f0160208091040260200160405190810160405280939291908181526020018383808284378201915050505050509192919290803590602001908201803590602001908080601f0160208091040260200160405190810160405280939291908181526020018383808284378201915050505050509192919290803590602001908201803590602001908080601f01602080910402602001604051908101604052809392919081815260200183838082843782019150505050505091929192905050506111dc565b60405180826000191660001916815260200191505060405180910390f35b34801561067d57600080fd5b50610702600480360381019080803573ffffffffffffffffffffffffffffffffffffffff16906020019092919080359060200190929190803590602001908201803590602001908080601f0160208091040260200160405190810160405280939291908181526020018383808284378201915050505050509192919290505050611425565b6040518082815260200191505060405180910390f35b34801561072457600080fd5b506107476004803603810190808035600019169060200190929190505050611580565b604051808781526020018681526020018573ffffffffffffffffffffffffffffffffffffffff1673ffffffffffffffffffffffffffffffffffffffff168152602001806020018060200180602001848103845287818151815260200191508051906020019080838360005b838110156107cd5780820151818401526020810190506107b2565b50505050905090810190601f1680156107fa5780820380516001836020036101000a031916815260200191505b50848103835286818151815260200191508051906020019080838360005b83811015610833578082015181840152602081019050610818565b50505050905090810190601f1680156108605780820380516001836020036101000a031916815260200191505b50848103825285818151815260200191508051906020019080838360005b8381101561089957808201518184015260208101905061087e565b50505050905090810190601f1680156108c65780820380516001836020036101000a031916815260200191505b50995050505050505050505060405180910390f35b3480156108e757600080fd5b50610914600480360381019080803560001916906020019092919080359060200190929190505050611768565b604051808215151515815260200191505060405180910390f35b34801561093a57600080fd5b5061095d6004803603810190808035600019169060200190929190505050611831565b6040518080602001828103825283818151815260200191508051906020019060200280838360005b838110156109a0578082015181840152602081019050610985565b505050509050019250505060405180910390f35b606060008073__KeyHolderLibrary______________________63b01a9fb36000866040518363ffffffff167c01000000000000000000000000000000000000000000000000000000000281526004018083815260200182600019166000191681526020019250505060006040518083038186803b158015610a3557600080fd5b505af4158015610a49573d6000803e3d6000fd5b505050506040513d6000823e3d601f19601f820116820180604052506060811015610a7357600080fd5b810190808051640100000000811115610a8b57600080fd5b82810190506020810184811115610aa157600080fd5b8151856020820283011164010000000082111715610abe57600080fd5b505092919060200180519060200190929190805190602001909291905050509250925092509193909250565b600073__KeyHolderLibrary______________________635d601c3a60008686866040518563ffffffff167c010000000000000000000000000000000000000000000000000000000002815260040180858152602001846000191660001916815260200183815260200182815260200194505050505060206040518083038186803b158015610b7857600080fd5b505af4158015610b8c573d6000803e3d6000fd5b505050506040513d6020811015610ba257600080fd5b810190808051906020019092919050505090509392505050565b73__ClaimHolderLibrary____________________63428e59ee6000600488888888886040518863ffffffff167c010000000000000000000000000000000000000000000000000000000002815260040180888152602001878152602001806020018060200180602001806020018060200186810386528b818151815260200191508051906020019060200280838360005b83811015610c69578082015181840152602081019050610c4e565b5050505090500186810385528a818151815260200191508051906020019060200280838360005b83811015610cab578082015181840152602081019050610c90565b50505050905001868103845289818151815260200191508051906020019080838360005b83811015610cea578082015181840152602081019050610ccf565b50505050905090810190601f168015610d175780820380516001836020036101000a031916815260200191505b50868103835288818151815260200191508051906020019080838360005b83811015610d50578082015181840152602081019050610d35565b50505050905090810190601f168015610d7d5780820380516001836020036101000a031916815260200191505b50868103825287818151815260200191508051906020019060200280838360005b83811015610db9578082015181840152602081019050610d9e565b505050509050019c5050505050505050505050505060006040518083038186803b158015610de657600080fd5b505af4158015610dfa573d6000803e3d6000fd5b505050505050505050565b600073__ClaimHolderLibrary____________________635c02fae160006004856040518463ffffffff167c0100000000000000000000000000000000000000000000000000000000028152600401808481526020018381526020018260001916600019168152602001935050505060206040518083038186803b158015610e8c57600080fd5b505af4158015610ea0573d6000803e3d6000fd5b505050506040513d6020811015610eb657600080fd5b81019080805190602001909291905050509050919050565b600073__KeyHolderLibrary______________________633f47616d600085856040518463ffffffff167c0100000000000000000000000000000000000000000000000000000000028152600401808481526020018360001916600019168152602001828152602001935050505060206040518083038186803b158015610f5457600080fd5b505af4158015610f68573d6000803e3d6000fd5b505050506040513d6020811015610f7e57600080fd5b8101908080519060200190929190505050905092915050565b600073__KeyHolderLibrary______________________6367d4865f600085856040518463ffffffff167c01000000000000000000000000000000000000000000000000000000000281526004018084815260200183815260200182151515158152602001935050505060206040518083038186803b15801561101957600080fd5b505af415801561102d573d6000803e3d6000fd5b505050506040513d602081101561104357600080fd5b8101908080519060200190929190505050905092915050565b6060600460010160008381526020019081526020016000208054806020026020016040519081016040528092919081815260200182805480156110c257602002820191906000526020600020905b815460001916815260200190600101908083116110aa575b50505050509050919050565b606073__KeyHolderLibrary______________________63746199f96000846040518363ffffffff167c0100000000000000000000000000000000000000000000000000000000028152600401808381526020018281526020019250505060006040518083038186803b15801561114457600080fd5b505af4158015611158573d6000803e3d6000fd5b505050506040513d6000823e3d601f19601f82011682018060405250602081101561118257600080fd5b81019080805164010000000081111561119a57600080fd5b828101905060208101848111156111b057600080fd5b81518560208202830111640100000000821117156111cd57600080fd5b50509291905050509050919050565b600073__ClaimHolderLibrary____________________63bd2d0c28600060048a8a8a8a8a8a6040518963ffffffff167c0100000000000000000000000000000000000000000000000000000000028152600401808981526020018881526020018781526020018681526020018573ffffffffffffffffffffffffffffffffffffffff1673ffffffffffffffffffffffffffffffffffffffff168152602001806020018060200180602001848103845287818151815260200191508051906020019080838360005b838110156112bf5780820151818401526020810190506112a4565b50505050905090810190601f1680156112ec5780820380516001836020036101000a031916815260200191505b50848103835286818151815260200191508051906020019080838360005b8381101561132557808201518184015260208101905061130a565b50505050905090810190601f1680156113525780820380516001836020036101000a031916815260200191505b50848103825285818151815260200191508051906020019080838360005b8381101561138b578082015181840152602081019050611370565b50505050905090810190601f1680156113b85780820380516001836020036101000a031916815260200191505b509b50505050505050505050505060206040518083038186803b1580156113de57600080fd5b505af41580156113f2573d6000803e3d6000fd5b505050506040513d602081101561140857600080fd5b810190808051906020019092919050505090509695505050505050565b600073__KeyHolderLibrary______________________63e9356c6f60008686866040518563ffffffff167c0100000000000000000000000000000000000000000000000000000000028152600401808581526020018473ffffffffffffffffffffffffffffffffffffffff1673ffffffffffffffffffffffffffffffffffffffff16815260200183815260200180602001828103825283818151815260200191508051906020019080838360005b838110156114ef5780820151818401526020810190506114d4565b50505050905090810190601f16801561151c5780820380516001836020036101000a031916815260200191505b509550505050505060206040518083038186803b15801561153c57600080fd5b505af4158015611550573d6000803e3d6000fd5b505050506040513d602081101561156657600080fd5b810190808051906020019092919050505090509392505050565b6000806000606080606073__ClaimHolderLibrary____________________638522d0eb6004896040518363ffffffff167c01000000000000000000000000000000000000000000000000000000000281526004018083815260200182600019166000191681526020019250505060006040518083038186803b15801561160657600080fd5b505af415801561161a573d6000803e3d6000fd5b505050506040513d6000823e3d601f19601f8201168201806040525060c081101561164457600080fd5b81019080805190602001909291908051906020019092919080519060200190929190805164010000000081111561167a57600080fd5b8281019050602081018481111561169057600080fd5b81518560018202830111640100000000821117156116ad57600080fd5b505092919060200180516401000000008111156116c957600080fd5b828101905060208101848111156116df57600080fd5b81518560018202830111640100000000821117156116fc57600080fd5b5050929190602001805164010000000081111561171857600080fd5b8281019050602081018481111561172e57600080fd5b815185600182028301116401000000008211171561174b57600080fd5b505092919050505095509550955095509550955091939550919395565b600073__KeyHolderLibrary______________________63d8188a40600085856040518463ffffffff167c0100000000000000000000000000000000000000000000000000000000028152600401808481526020018360001916600019168152602001828152602001935050505060206040518083038186803b1580156117ee57600080fd5b505af4158015611802573d6000803e3d6000fd5b505050506040513d602081101561181857600080fd5b8101908080519060200190929190505050905092915050565b606073__KeyHolderLibrary______________________630f982bac6000846040518363ffffffff167c01000000000000000000000000000000000000000000000000000000000281526004018083815260200182600019166000191681526020019250505060006040518083038186803b1580156118af57600080fd5b505af41580156118c3573d6000803e3d6000fd5b505050506040513d6000823e3d601f19601f8201168201806040525060208110156118ed57600080fd5b81019080805164010000000081111561190557600080fd5b8281019050602081018481111561191b57600080fd5b815185602082028301116401000000008211171561193857600080fd5b505092919050505090509190505600a165627a7a72305820ffe95812111fcf1fb6d819734fafeb387a85897c182cdf2420e1429bb02949750029",
  "source": "pragma solidity ^0.4.24;\n\nimport \"./ERC735.sol\";\nimport \"./KeyHolder.sol\";\nimport \"./ClaimHolderLibrary.sol\";\n\n\ncontract ClaimHolder is KeyHolder, ERC735 {\n\n    ClaimHolderLibrary.Claims claims;\n\n    function addClaim(\n        uint256 _topic,\n        uint256 _scheme,\n        address _issuer,\n        bytes _signature,\n        bytes _data,\n        string _uri\n    )\n        public\n        returns (bytes32 claimRequestId)\n    {\n        return ClaimHolderLibrary.addClaim(\n            keyHolderData,\n            claims,\n            _topic,\n            _scheme,\n            _issuer,\n            _signature,\n            _data,\n            _uri\n        );\n    }\n\n    function addClaims(\n        uint256[] _topic,\n        address[] _issuer,\n        bytes _signature,\n        bytes _data,\n        uint256[] _offsets\n    )\n        public\n    {\n        ClaimHolderLibrary.addClaims(\n            keyHolderData,\n            claims,\n            _topic,\n            _issuer,\n            _signature,\n            _data,\n            _offsets\n        );\n    }\n\n    function removeClaim(bytes32 _claimId) public returns (bool success) {\n        return ClaimHolderLibrary.removeClaim(keyHolderData, claims, _claimId);\n    }\n\n    function getClaim(bytes32 _claimId)\n        public\n        view\n        returns(\n            uint256 topic,\n            uint256 scheme,\n            address issuer,\n            bytes signature,\n            bytes data,\n            string uri\n        )\n    {\n        return ClaimHolderLibrary.getClaim(claims, _claimId);\n    }\n\n    function getClaimIdsByTopic(uint256 _topic)\n        public\n        view\n        returns(bytes32[] claimIds)\n    {\n        return claims.byTopic[_topic];\n    }\n}",
  "sourcePath": "/Users/chanpoyu/Desktop/Identity/contracts/ClaimHolder.sol",
  "compiler": {
    "name": "solc",
    "version": "0.4.25+commit.59dbf8f1.Linux.g++"
  },
  "schemaVersion": "3.0.1",
  "updatedAt": "2019-01-10T01:38:37.976Z",
  "devdoc": {
    "methods": {}
  },
  "userdoc": {
    "methods": {}
  }
}