{
  "contractName": "KeyHolderLibrary",
  "abi": [
    {
      "anonymous": false,
      "inputs": [
        {
          "indexed": true,
          "name": "key",
          "type": "bytes32"
        },
        {
          "indexed": true,
          "name": "purpose",
          "type": "uint256"
        },
        {
          "indexed": true,
          "name": "keyType",
          "type": "uint256"
        }
      ],
      "name": "KeyAdded",
      "type": "event",
      "signature": "0x480000bb1edad8ca1470381cc334b1917fbd51c6531f3a623ea8e0ec7e38a6e9"
    },
    {
      "anonymous": false,
      "inputs": [
        {
          "indexed": true,
          "name": "key",
          "type": "bytes32"
        },
        {
          "indexed": true,
          "name": "purpose",
          "type": "uint256"
        },
        {
          "indexed": true,
          "name": "keyType",
          "type": "uint256"
        }
      ],
      "name": "KeyRemoved",
      "type": "event",
      "signature": "0x585a4aef50f8267a92b32412b331b20f7f8b96f2245b253b9cc50dcc621d3397"
    },
    {
      "anonymous": false,
      "inputs": [
        {
          "indexed": true,
          "name": "executionId",
          "type": "uint256"
        },
        {
          "indexed": true,
          "name": "to",
          "type": "address"
        },
        {
          "indexed": true,
          "name": "value",
          "type": "uint256"
        },
        {
          "indexed": false,
          "name": "data",
          "type": "bytes"
        }
      ],
      "name": "ExecutionRequested",
      "type": "event",
      "signature": "0x8afcfabcb00e47a53a8fc3e9f23ff47ee1926194bb1350dd007c50b412a6cee8"
    },
    {
      "anonymous": false,
      "inputs": [
        {
          "indexed": true,
          "name": "executionId",
          "type": "uint256"
        },
        {
          "indexed": true,
          "name": "to",
          "type": "address"
        },
        {
          "indexed": true,
          "name": "value",
          "type": "uint256"
        },
        {
          "indexed": false,
          "name": "data",
          "type": "bytes"
        }
      ],
      "name": "ExecutionFailed",
      "type": "event",
      "signature": "0xe10c49d9f7c71da23262367013434763cfdb2332267641728d25cd712c5c6a68"
    },
    {
      "anonymous": false,
      "inputs": [
        {
          "indexed": true,
          "name": "executionId",
          "type": "uint256"
        },
        {
          "indexed": true,
          "name": "to",
          "type": "address"
        },
        {
          "indexed": true,
          "name": "value",
          "type": "uint256"
        },
        {
          "indexed": false,
          "name": "data",
          "type": "bytes"
        }
      ],
      "name": "Executed",
      "type": "event",
      "signature": "0x1f920dbda597d7bf95035464170fa58d0a4b57f13a1c315ace6793b9f63688b8"
    },
    {
      "anonymous": false,
      "inputs": [
        {
          "indexed": true,
          "name": "executionId",
          "type": "uint256"
        },
        {
          "indexed": false,
          "name": "approved",
          "type": "bool"
        }
      ],
      "name": "Approved",
      "type": "event",
      "signature": "0xb3932da477fe5d6c8ff2eafef050c0f3a1af18fc07121001482600f36f3715d8"
    },
    {
      "constant": false,
      "inputs": [
        {
          "name": "_keyHolderData",
          "type": "KeyHolderLibrary.KeyHolderData storage"
        }
      ],
      "name": "init",
      "outputs": [],
      "payable": false,
      "stateMutability": "nonpayable",
      "type": "function",
      "signature": "0x30864be5"
    },
    {
      "constant": true,
      "inputs": [
        {
          "name": "_keyHolderData",
          "type": "KeyHolderLibrary.KeyHolderData storage"
        },
        {
          "name": "_key",
          "type": "bytes32"
        }
      ],
      "name": "getKey",
      "outputs": [
        {
          "name": "purposes",
          "type": "uint256[]"
        },
        {
          "name": "keyType",
          "type": "uint256"
        },
        {
          "name": "key",
          "type": "bytes32"
        }
      ],
      "payable": false,
      "stateMutability": "view",
      "type": "function",
      "signature": "0xb01a9fb3"
    },
    {
      "constant": true,
      "inputs": [
        {
          "name": "_keyHolderData",
          "type": "KeyHolderLibrary.KeyHolderData storage"
        },
        {
          "name": "_key",
          "type": "bytes32"
        }
      ],
      "name": "getKeyPurposes",
      "outputs": [
        {
          "name": "purposes",
          "type": "uint256[]"
        }
      ],
      "payable": false,
      "stateMutability": "view",
      "type": "function",
      "signature": "0x0f982bac"
    },
    {
      "constant": true,
      "inputs": [
        {
          "name": "_keyHolderData",
          "type": "KeyHolderLibrary.KeyHolderData storage"
        },
        {
          "name": "_purpose",
          "type": "uint256"
        }
      ],
      "name": "getKeysByPurpose",
      "outputs": [
        {
          "name": "_keys",
          "type": "bytes32[]"
        }
      ],
      "payable": false,
      "stateMutability": "view",
      "type": "function",
      "signature": "0x746199f9"
    },
    {
      "constant": false,
      "inputs": [
        {
          "name": "_keyHolderData",
          "type": "KeyHolderLibrary.KeyHolderData storage"
        },
        {
          "name": "_key",
          "type": "bytes32"
        },
        {
          "name": "_purpose",
          "type": "uint256"
        },
        {
          "name": "_type",
          "type": "uint256"
        }
      ],
      "name": "addKey",
      "outputs": [
        {
          "name": "success",
          "type": "bool"
        }
      ],
      "payable": false,
      "stateMutability": "nonpayable",
      "type": "function",
      "signature": "0x5d601c3a"
    },
    {
      "constant": false,
      "inputs": [
        {
          "name": "_keyHolderData",
          "type": "KeyHolderLibrary.KeyHolderData storage"
        },
        {
          "name": "_id",
          "type": "uint256"
        },
        {
          "name": "_approve",
          "type": "bool"
        }
      ],
      "name": "approve",
      "outputs": [
        {
          "name": "success",
          "type": "bool"
        }
      ],
      "payable": false,
      "stateMutability": "nonpayable",
      "type": "function",
      "signature": "0x67d4865f"
    },
    {
      "constant": false,
      "inputs": [
        {
          "name": "_keyHolderData",
          "type": "KeyHolderLibrary.KeyHolderData storage"
        },
        {
          "name": "_to",
          "type": "address"
        },
        {
          "name": "_value",
          "type": "uint256"
        },
        {
          "name": "_data",
          "type": "bytes"
        }
      ],
      "name": "execute",
      "outputs": [
        {
          "name": "executionId",
          "type": "uint256"
        }
      ],
      "payable": false,
      "stateMutability": "nonpayable",
      "type": "function",
      "signature": "0xe9356c6f"
    },
    {
      "constant": false,
      "inputs": [
        {
          "name": "_keyHolderData",
          "type": "KeyHolderLibrary.KeyHolderData storage"
        },
        {
          "name": "_key",
          "type": "bytes32"
        },
        {
          "name": "_purpose",
          "type": "uint256"
        }
      ],
      "name": "removeKey",
      "outputs": [
        {
          "name": "success",
          "type": "bool"
        }
      ],
      "payable": false,
      "stateMutability": "nonpayable",
      "type": "function",
      "signature": "0x3f47616d"
    },
    {
      "constant": true,
      "inputs": [
        {
          "name": "_keyHolderData",
          "type": "KeyHolderLibrary.KeyHolderData storage"
        },
        {
          "name": "_key",
          "type": "bytes32"
        },
        {
          "name": "_purpose",
          "type": "uint256"
        }
      ],
      "name": "keyHasPurpose",
      "outputs": [
        {
          "name": "result",
          "type": "bool"
        }
      ],
      "payable": false,
      "stateMutability": "view",
      "type": "function",
      "signature": "0xd8188a40"
    }
  ],
  "bytecode": "0x611c53610030600b82828239805160001a6073146000811461002057610022565bfe5b5030600052607381538281f30073000000000000000000000000000000000000000030146080604052600436106100b0576000357c0100000000000000000000000000000000000000000000000000000000900463ffffffff1680630f982bac146100b557806330864be5146101385780633f47616d146101655780635d601c3a146101c257806367d4865f14610229578063746199f914610284578063b01a9fb314610303578063d8188a401461039c578063e9356c6f146103ec575b600080fd5b6100e160048036038101908080359060200190929190803560001916906020019092919050505061049d565b6040518080602001828103825283818151815260200191508051906020019060200280838360005b83811015610124578082015181840152602081019050610109565b505050509050019250505060405180910390f35b81801561014457600080fd5b5061016360048036038101908080359060200190929190505050610516565b005b81801561017157600080fd5b506101a8600480360381019080803590602001909291908035600019169060200190929190803590602001909291905050506106ef565b604051808215151515815260200191505060405180910390f35b8180156101ce57600080fd5b5061020f6004803603810190808035906020019092919080356000191690602001909291908035906020019092919080359060200190929190505050610b91565b604051808215151515815260200191505060405180910390f35b81801561023557600080fd5b5061026a6004803603810190808035906020019092919080359060200190929190803515159060200190929190505050610ee7565b604051808215151515815260200191505060405180910390f35b6102ac600480360381019080803590602001909291908035906020019092919050505061151a565b6040518080602001828103825283818151815260200191508051906020019060200280838360005b838110156102ef5780820151818401526020810190506102d4565b505050509050019250505060405180910390f35b61032f60048036038101908080359060200190929190803560001916906020019092919050505061158c565b60405180806020018481526020018360001916600019168152602001828103825285818151815260200191508051906020019060200280838360005b8381101561038657808201518184015260208101905061036b565b5050505090500194505050505060405180910390f35b6103d260048036038101908080359060200190929190803560001916906020019092919080359060200190929190505050611652565b604051808215151515815260200191505060405180910390f35b8180156103f857600080fd5b5061048760048036038101908080359060200190929190803573ffffffffffffffffffffffffffffffffffffffff16906020019092919080359060200190929190803590602001908201803590602001908080601f0160208091040260200160405190810160405280939291908181526020018383808284378201915050505050509192919290505050611709565b6040518082815260200191505060405180910390f35b6060826001016000836000191660001916815260200190815260200160002060000180548060200260200160405190810160405280929190818152602001828054801561050957602002820191906000526020600020905b8154815260200190600101908083116104f5575b5050505050905092915050565b600033604051602001808273ffffffffffffffffffffffffffffffffffffffff1673ffffffffffffffffffffffffffffffffffffffff166c010000000000000000000000000281526014019150506040516020818303038152906040526040518082805190602001908083835b6020831015156105a85780518252602082019150602081019050602083039250610583565b6001836020036101000a03801982511681845116808217855250505050505090500191505060405180910390209050808260010160008360001916600019168152602001908152602001600020600201816000191690555081600101600082600019166000191681526020019081526020016000206000016001908060018154018082558091505090600182039060005260206000200160009091929091909150555060018260010160008360001916600019168152602001908152602001600020600101819055508160020160006001815260200190815260200160002081908060018154018082558091505090600182039060005260206000200160009091929091909150906000191690555060018082600019167f480000bb1edad8ca1470381cc334b1917fbd51c6531f3a623ea8e0ec7e38a6e960405160405180910390a45050565b60008060008060003073ffffffffffffffffffffffffffffffffffffffff163373ffffffffffffffffffffffffffffffffffffffff1614151561088f576107f48833604051602001808273ffffffffffffffffffffffffffffffffffffffff1673ffffffffffffffffffffffffffffffffffffffff166c010000000000000000000000000281526014019150506040516020818303038152906040526040518082805190602001908083835b6020831015156107c0578051825260208201915060208101905060208303925061079b565b6001836020036101000a03801982511681845116808217855250505050505090500191505060405180910390206001611652565b151561088e576040517f08c379a00000000000000000000000000000000000000000000000000000000081526004018080602001828103825260238152602001807f53656e64657220646f6573206e6f742068617665206d616e6167656d656e742081526020017f6b6579000000000000000000000000000000000000000000000000000000000081525060400191505060405180910390fd5b5b86600019168860010160008960001916600019168152602001908152602001600020600201546000191614151561092e576040517f08c379a000000000000000000000000000000000000000000000000000000000815260040180806020018281038252600b8152602001807f4e6f2073756368206b657900000000000000000000000000000000000000000081525060200191505060405180910390fd5b8760010160008860001916600019168152602001908152602001600020600101548688600019167f585a4aef50f8267a92b32412b331b20f7f8b96f2245b253b9cc50dcc621d339760405160405180910390a487600101600088600019166000191681526020019081526020016000206000019350600092505b8380549050831015610a5a578584848154811015156109c357fe5b90600052602060002001541415610a4d578360018580549050038154811015156109e957fe5b90600052602060002001548484815481101515610a0257fe5b9060005260206000200181905550836001858054905003815481101515610a2557fe5b906000526020600020016000905583805480919060019003610a479190611ae4565b50610a5a565b82806001019350506109a8565b600084805490501415610aa857876001016000886000191660001916815260200190815260200160002060008082016000610a959190611b10565b6001820160009055600282016000905550505b8760020160008781526020019081526020016000209150600090505b8180549050811015610b825786600019168282815481101515610ae357fe5b9060005260206000200154600019161415610b7557816001838054905003815481101515610b0d57fe5b90600052602060002001548282815481101515610b2657fe5b906000526020600020018160001916905550816001838054905003815481101515610b4d57fe5b906000526020600020016000905581805480919060019003610b6f9190611b31565b50610b82565b8080600101915050610ac4565b60019450505050509392505050565b600083600019168560010160008660001916600019168152602001908152602001600020600201546000191614151515610c33576040517f08c379a00000000000000000000000000000000000000000000000000000000081526004018080602001828103825260128152602001807f4b657920616c726561647920657869737473000000000000000000000000000081525060200191505060405180910390fd5b3073ffffffffffffffffffffffffffffffffffffffff163373ffffffffffffffffffffffffffffffffffffffff16141515610dcb57610d308533604051602001808273ffffffffffffffffffffffffffffffffffffffff1673ffffffffffffffffffffffffffffffffffffffff166c010000000000000000000000000281526014019150506040516020818303038152906040526040518082805190602001908083835b602083101515610cfc5780518252602082019150602081019050602083039250610cd7565b6001836020036101000a03801982511681845116808217855250505050505090500191505060405180910390206001611652565b1515610dca576040517f08c379a00000000000000000000000000000000000000000000000000000000081526004018080602001828103825260238152602001807f53656e64657220646f6573206e6f742068617665206d616e6167656d656e742081526020017f6b6579000000000000000000000000000000000000000000000000000000000081525060400191505060405180910390fd5b5b8385600101600086600019166000191681526020019081526020016000206002018160001916905550846001016000856000191660001916815260200190815260200160002060000183908060018154018082558091505090600182039060005260206000200160009091929091909150555081856001016000866000191660001916815260200190815260200160002060010181905550846002016000848152602001908152602001600020849080600181540180825580915050906001820390600052602060002001600090919290919091509060001916905550818385600019167f480000bb1edad8ca1470381cc334b1917fbd51c6531f3a623ea8e0ec7e38a6e960405160405180910390a460019050949350505050565b6000610fb18433604051602001808273ffffffffffffffffffffffffffffffffffffffff1673ffffffffffffffffffffffffffffffffffffffff166c010000000000000000000000000281526014019150506040516020818303038152906040526040518082805190602001908083835b602083101515610f7d5780518252602082019150602081019050602083039250610f58565b6001836020036101000a03801982511681845116808217855250505050505090500191505060405180910390206002611652565b1515611025576040517f08c379a000000000000000000000000000000000000000000000000000000000815260040180806020018281038252601f8152602001807f53656e64657220646f6573206e6f74206861766520616374696f6e206b65790081525060200191505060405180910390fd5b83600301600084815260200190815260200160002060030160019054906101000a900460ff161515156110c0576040517f08c379a00000000000000000000000000000000000000000000000000000000081526004018080602001828103825260108152602001807f416c72656164792065786563757465640000000000000000000000000000000081525060200191505060405180910390fd5b827fb3932da477fe5d6c8ff2eafef050c0f3a1af18fc07121001482600f36f3715d883604051808215151515815260200191505060405180910390a26001151582151514156114dd57600184600301600085815260200190815260200160002060030160006101000a81548160ff02191690831515021790555083600301600084815260200190815260200160002060000160009054906101000a900473ffffffffffffffffffffffffffffffffffffffff1673ffffffffffffffffffffffffffffffffffffffff16846003016000858152602001908152602001600020600201600060405180838054600181600116156101000203166002900480156112085780601f106111dd57610100808354040283529160200191611208565b820191906000526020600020905b8154815290600101906020018083116111eb57829003601f168201915b50508260ff168152602001925050506000604051808303816000865af19150509050801561139f57600184600301600085815260200190815260200160002060030160016101000a81548160ff0219169083151502179055508360030160008481526020019081526020016000206001015484600301600085815260200190815260200160002060000160009054906101000a900473ffffffffffffffffffffffffffffffffffffffff1673ffffffffffffffffffffffffffffffffffffffff16847f1f920dbda597d7bf95035464170fa58d0a4b57f13a1c315ace6793b9f63688b8876003016000888152602001908152602001600020600201604051808060200182810382528381815460018160011615610100020316600290048152602001915080546001816001161561010002031660029004801561138c5780601f106113615761010080835404028352916020019161138c565b820191906000526020600020905b81548152906001019060200180831161136f57829003601f168201915b50509250505060405180910390a4611513565b8360030160008481526020019081526020016000206001015484600301600085815260200190815260200160002060000160009054906101000a900473ffffffffffffffffffffffffffffffffffffffff1673ffffffffffffffffffffffffffffffffffffffff16847fe10c49d9f7c71da23262367013434763cfdb2332267641728d25cd712c5c6a6887600301600088815260200190815260200160002060020160405180806020018281038252838181546001816001161561010002031660029004815260200191508054600181600116156101000203166002900480156114ca5780601f1061149f576101008083540402835291602001916114ca565b820191906000526020600020905b8154815290600101906020018083116114ad57829003601f168201915b50509250505060405180910390a4611513565b600084600301600085815260200190815260200160002060030160006101000a81548160ff021916908315150217905550600190505b9392505050565b606082600201600083815260200190815260200160002080548060200260200160405190810160405280929190818152602001828054801561157f57602002820191906000526020600020905b81546000191681526020019060010190808311611567575b5050505050905092915050565b606060008084600101600085600019166000191681526020019081526020016000206000018560010160008660001916600019168152602001908152602001600020600101548660010160008760001916600019168152602001908152602001600020600201548280548060200260200160405190810160405280929190818152602001828054801561163e57602002820191906000526020600020905b81548152602001906001019080831161162a575b505050505092509250925092509250925092565b600080600080600060010287600101600088600019166000191681526020019081526020016000206002015460001916141561169157600093506116ff565b86600101600087600019166000191681526020019081526020016000206000019150600090505b81805490508110156116fb578482828154811015156116d357fe5b90600052602060002001541115156116ee57600192506116fb565b80806001019150506116b8565b8293505b5050509392505050565b60008460030160008660000154815260200190815260200160002060030160019054906101000a900460ff161515156117aa576040517f08c379a00000000000000000000000000000000000000000000000000000000081526004018080602001828103825260108152602001807f416c72656164792065786563757465640000000000000000000000000000000081525060200191505060405180910390fd5b838560030160008760000154815260200190815260200160002060000160006101000a81548173ffffffffffffffffffffffffffffffffffffffff021916908373ffffffffffffffffffffffffffffffffffffffff16021790555082856003016000876000015481526020019081526020016000206001018190555081856003016000876000015481526020019081526020016000206002019080519060200190611856929190611b5d565b50828473ffffffffffffffffffffffffffffffffffffffff1686600001547f8afcfabcb00e47a53a8fc3e9f23ff47ee1926194bb1350dd007c50b412a6cee8856040518080602001828103825283818151815260200191508051906020019080838360005b838110156118d65780820151818401526020810190506118bb565b50505050905090810190601f1680156119035780820380516001836020036101000a031916815260200191505b509250505060405180910390a46119d88533604051602001808273ffffffffffffffffffffffffffffffffffffffff1673ffffffffffffffffffffffffffffffffffffffff166c010000000000000000000000000281526014019150506040516020818303038152906040526040518082805190602001908083835b6020831015156119a4578051825260208201915060208101905060208303925061197f565b6001836020036101000a03801982511681845116808217855250505050505090500191505060405180910390206001611652565b80611aa75750611aa68533604051602001808273ffffffffffffffffffffffffffffffffffffffff1673ffffffffffffffffffffffffffffffffffffffff166c010000000000000000000000000281526014019150506040516020818303038152906040526040518082805190602001908083835b602083101515611a725780518252602082019150602081019050602083039250611a4d565b6001836020036101000a03801982511681845116808217855250505050505090500191505060405180910390206002611652565b5b15611abe57611abc8586600001546001610ee7565b505b846000016000815480929190600101919050555060018560000154039050949350505050565b815481835581811115611b0b57818360005260206000209182019101611b0a9190611bdd565b5b505050565b5080546000825590600052602060002090810190611b2e9190611bdd565b50565b815481835581811115611b5857818360005260206000209182019101611b579190611c02565b5b505050565b828054600181600116156101000203166002900490600052602060002090601f016020900481019282601f10611b9e57805160ff1916838001178555611bcc565b82800160010185558215611bcc579182015b82811115611bcb578251825591602001919060010190611bb0565b5b509050611bd99190611bdd565b5090565b611bff91905b80821115611bfb576000816000905550600101611be3565b5090565b90565b611c2491905b80821115611c20576000816000905550600101611c08565b5090565b905600a165627a7a723058202b409903f13fcb926aff79dea7f9e57da54ef32bb3cb5bca06edfb225d9f62170029",
  "source": "pragma solidity ^0.4.24;\n\nlibrary KeyHolderLibrary {\n    event KeyAdded(bytes32 indexed key, uint256 indexed purpose, uint256 indexed keyType);\n    event KeyRemoved(bytes32 indexed key, uint256 indexed purpose, uint256 indexed keyType);\n    event ExecutionRequested(uint256 indexed executionId, address indexed to, uint256 indexed value, bytes data);\n    event ExecutionFailed(uint256 indexed executionId, address indexed to, uint256 indexed value, bytes data);\n    event Executed(uint256 indexed executionId, address indexed to, uint256 indexed value, bytes data);\n    event Approved(uint256 indexed executionId, bool approved);\n\n    struct Key {\n        uint256[] purposes; //e.g., MANAGEMENT_KEY = 1, ACTION_KEY = 2, etc.\n        uint256 keyType; // e.g. 1 = ECDSA, 2 = RSA, etc.\n        bytes32 key;\n    }\n\n    struct KeyHolderData {\n        uint256 executionNonce;\n        mapping (bytes32 => Key) keys;\n        mapping (uint256 => bytes32[]) keysByPurpose;\n        mapping (uint256 => Execution) executions;\n    }\n\n    struct Execution {\n        address to;\n        uint256 value;\n        bytes data;\n        bool approved;\n        bool executed;\n    }\n\n    function init(KeyHolderData storage _keyHolderData)\n        public\n    {\n        bytes32 _key = keccak256(abi.encodePacked(msg.sender));\n        _keyHolderData.keys[_key].key = _key;\n        _keyHolderData.keys[_key].purposes.push(1);\n        _keyHolderData.keys[_key].keyType = 1;\n        _keyHolderData.keysByPurpose[1].push(_key);\n        emit KeyAdded(_key, 1, 1);\n    }\n\n    function getKey(KeyHolderData storage _keyHolderData, bytes32 _key)\n        public\n        view\n        returns(uint256[] purposes, uint256 keyType, bytes32 key)\n    {\n        return (\n            _keyHolderData.keys[_key].purposes,\n            _keyHolderData.keys[_key].keyType,\n            _keyHolderData.keys[_key].key\n        );\n    }\n\n    function getKeyPurposes(KeyHolderData storage _keyHolderData, bytes32 _key)\n        public\n        view\n        returns(uint256[] purposes)\n    {\n        return (_keyHolderData.keys[_key].purposes);\n    }\n\n    function getKeysByPurpose(KeyHolderData storage _keyHolderData, uint256 _purpose)\n        public\n        view\n        returns(bytes32[] _keys)\n    {\n        return _keyHolderData.keysByPurpose[_purpose];\n    }\n\n    function addKey(KeyHolderData storage _keyHolderData, bytes32 _key, uint256 _purpose, uint256 _type)\n        public\n        returns (bool success)\n    {\n        require(_keyHolderData.keys[_key].key != _key, \"Key already exists\"); // Key should not already exist\n        if (msg.sender != address(this)) {\n            require(keyHasPurpose(_keyHolderData, keccak256(abi.encodePacked(msg.sender)), 1), \"Sender does not have management key\"); // Sender has MANAGEMENT_KEY\n        }\n\n        _keyHolderData.keys[_key].key = _key;\n        _keyHolderData.keys[_key].purposes.push(_purpose);\n        _keyHolderData.keys[_key].keyType = _type;\n\n        _keyHolderData.keysByPurpose[_purpose].push(_key);\n\n        emit KeyAdded(_key, _purpose, _type);\n\n        return true;\n    }\n\n    function approve(KeyHolderData storage _keyHolderData, uint256 _id, bool _approve)\n        public\n        returns (bool success)\n    {\n        require(keyHasPurpose(_keyHolderData, keccak256(abi.encodePacked(msg.sender)), 2), \"Sender does not have action key\");\n        require(!_keyHolderData.executions[_id].executed, \"Already executed\");\n\n        emit Approved(_id, _approve);\n\n        if (_approve == true) {\n            _keyHolderData.executions[_id].approved = true;\n            success = _keyHolderData.executions[_id].to.call(_keyHolderData.executions[_id].data, 0);\n            if (success) {\n                _keyHolderData.executions[_id].executed = true;\n                emit Executed(\n                    _id,\n                    _keyHolderData.executions[_id].to,\n                    _keyHolderData.executions[_id].value,\n                    _keyHolderData.executions[_id].data\n                );\n                return;\n            } else {\n                emit ExecutionFailed(\n                    _id,\n                    _keyHolderData.executions[_id].to,\n                    _keyHolderData.executions[_id].value,\n                    _keyHolderData.executions[_id].data\n                );\n                return;\n            }\n        } else {\n            _keyHolderData.executions[_id].approved = false;\n        }\n        return true;\n    }\n\n    function execute(KeyHolderData storage _keyHolderData, address _to, uint256 _value, bytes _data)\n        public\n        returns (uint256 executionId)\n    {\n        require(!_keyHolderData.executions[_keyHolderData.executionNonce].executed, \"Already executed\");\n        _keyHolderData.executions[_keyHolderData.executionNonce].to = _to;\n        _keyHolderData.executions[_keyHolderData.executionNonce].value = _value;\n        _keyHolderData.executions[_keyHolderData.executionNonce].data = _data;\n\n        emit ExecutionRequested(_keyHolderData.executionNonce, _to, _value, _data);\n\n        if (keyHasPurpose(_keyHolderData, keccak256(abi.encodePacked(msg.sender)),1) || keyHasPurpose(_keyHolderData, keccak256(abi.encodePacked(msg.sender)),2)) {\n            approve(_keyHolderData, _keyHolderData.executionNonce, true);\n        }\n\n        _keyHolderData.executionNonce++;\n        return _keyHolderData.executionNonce-1;\n    }\n\n    function removeKey(KeyHolderData storage _keyHolderData, bytes32 _key, uint256 _purpose)\n        public\n        returns (bool success)\n    {\n        if (msg.sender != address(this)) {\n            require(keyHasPurpose(_keyHolderData, keccak256(abi.encodePacked(msg.sender)), 1), \"Sender does not have management key\"); // Sender has MANAGEMENT_KEY\n        }\n\n        require(_keyHolderData.keys[_key].key == _key, \"No such key\");\n        emit KeyRemoved(_key, _purpose, _keyHolderData.keys[_key].keyType);\n\n        // Remove purpose from key\n        uint256[] storage purposes = _keyHolderData.keys[_key].purposes;\n        for (uint i = 0; i < purposes.length; i++) {\n            if (purposes[i] == _purpose) {\n                purposes[i] = purposes[purposes.length - 1];\n                delete purposes[purposes.length - 1];\n                purposes.length--;\n                break;\n            }\n        }\n\n        // If no more purposes, delete key\n        if (purposes.length == 0) {\n            delete _keyHolderData.keys[_key];\n        }\n\n        // Remove key from keysByPurpose\n        bytes32[] storage keys = _keyHolderData.keysByPurpose[_purpose];\n        for (uint j = 0; j < keys.length; j++) {\n            if (keys[j] == _key) {\n                keys[j] = keys[keys.length - 1];\n                delete keys[keys.length - 1];\n                keys.length--;\n                break;\n            }\n        }\n\n        return true;\n    }\n\n    function keyHasPurpose(KeyHolderData storage _keyHolderData, bytes32 _key, uint256 _purpose)\n        public\n        view\n        returns(bool result)\n    {\n        bool isThere;\n        if (_keyHolderData.keys[_key].key == 0) {\n            return false;\n        }\n\n        uint256[] storage purposes = _keyHolderData.keys[_key].purposes;\n        for (uint i = 0; i < purposes.length; i++) {\n            if (purposes[i] <= _purpose) {\n                isThere = true;\n                break;\n            }\n        }\n        return isThere;\n    }\n}",
  "sourcePath": "/Users/chanpoyu/Desktop/Identity/contracts/KeyHolderLibrary.sol",
  "compiler": {
    "name": "solc",
    "version": "0.4.25+commit.59dbf8f1.Linux.g++"
  },
  "schemaVersion": "3.0.1",
  "updatedAt": "2019-01-08T13:24:41.994Z",
  "devdoc": {
    "methods": {}
  },
  "userdoc": {
    "methods": {}
  }
}